:1000000012C017C016C015C027C013C012C011C03F
:1000100010C00FC00EC00DC00CC00BC00AC009C07C
:1000200008C007C006C011241FBECFEDCDBF02D04F
:1000300025C0E6CFF8948EB583608EBD88E09DE341
:100040009BBD8ABD8EB588608EBD89B7806489BF2F
:100050007894889A909AFFCF1F920F920FB60F92C2
:1000600011248F939F9382B391E0892782BB9F9144
:100070008F910F900FBE0F901F901895F894FFCF9F
:00000001FF
